:020000022000DC
:1070000000000420197202000172020003720200E3
:1070100005720200077202000972020000000000FF
:107020000000000000000000000000000B720200E1
:107030000D720200000000000F72020011720200C7
:107040006D8E02005D860200D19B0200259E02002B
:107050001372020013720200C99A02001372020036
:10706000ED860200258702001372020013720200EF
:1070700013720200137202001372020013720200F4
:1070800013720200A1D302001372020013720200F5
:107090001372020013720200F54C03001372020017
:1070A00013720200137202001372020013720200C4
:1070B00013720200137202000000000000000000C2
:1070C00013720200137202001372020013720200A4
:1070D0001372020013720200137202001372020094
:1070E000137202001372020013720200000000000B
:1070F0000000000013720200000000001372020082
:10710000000000000000000000000000000000007F
:10711000000000000000000000000000000000006F
:10712000000000000000000000000000000000005F
:10713000000000000000000000000000000000004F
:10714000000000000000000000000000000000003F
:10715000000000000000000000000000000000002F
:10716000000000000000000000000000000000001F
:10717000000000000000000000000000000000000F
:1071800000000000000000000000000000000000FF
:1071900000000000000000000000000000000000EF
:1071A00000000000000000000000000000000000DF
:1071B00000000000000000000000000000000000CF
:1071C00000000000000000000000000000000000BF
:1071D00000000000000000000000000000000000AF
:1071E000000000000000000000000000000000009F
:1071F000000000000000000000000000000000008F
:10720000FEE7FEE7FEE7FEE7FEE7FEE7FEE7FEE756
:10721000FEE7FEE700F002B8FFF7FCBF0F484FF0B3
:107220000701884385460E4880470E48016841F4AF
:1072300070010160BFF34F8FBFF36F8F00F01AB87A
:1072400009480A490A4A884207D0521A05D00378E9
:1072500001300B700131013AF9D170470000042070
:10726000997F020088ED00E03C520300D89801208D
:10727000D89801203A493B480A1A02D00722914384
:107280008D46394939480A1A06D00722914381F3BD
:107290000988022282F3148835483649364A00F0BC
:1072A00041F836483649374A00F03CF83648374905
:1072B000374A00F037F837483749384A00F032F893
:1072C00037483849384A00F02DF838483849394AA3
:1072D00000F028F838483949394A00F023F839488D
:1072E0003949002200F036F838483949002200F0C8
:1072F00031F838483849091A0DF084FE374A90476A
:1073000025482649884205D00268043003B49047D6
:1073100003BCF7E700208646EC4600200021304AF7
:107320009047FEE7884214D0521A12D003460B430E
:1073300013430324234206D1036804300B60043155
:10734000043AF9D17047037801300B700131013AEA
:10735000F9D17047884202D002700130FAE77047D5
:107360000000042000F80320000004200000042096
:10737000847B0A00D898012024990120E47302003C
:10738000E473020058510300847B0A00D89801205E
:10739000D89801203C5203003C5203003C520300A9
:1073A0003C5203003C5203003C5203003C52030099
:1073B0003C520300847B0A00D07B0A002499012000
:1073C0002499012024990120F8CE0120F8CE012033
:1073D000F8CE0120F8CE0120F8D001204172020041
:0473E000E57302004F
:1073E40000B583B00B480DF03CFE01900A480DF047
:1073F40038FE01900023009300F080F900F030F98A
:1074040000F036F900F08AF800F0DBFB00F05AF9DE
:10741400FEE700BFE85203002CEA060082B00190A8
:1074240000BF02B07047000000B583B001900B4666
:107434008DF80330019B0B2B13D10C4B1B680133CC
:107444000A4A1360094B5B680133084A5360074BCF
:107454005B680133054A53600C220449044800F078
:107464007BF800BF03B05DF804FB00BFF89801206F
:10747400C0FF0F0000B585B001900091009B0393FD
:10748400039B002B3DD0019B002B3AD0019B1B8812
:10749400502B14D0502B36DC262B2FD0262B32DC4D
:1074A400102B02D0112B05D02DE0019B9A88039B51
:1074B4009A822BE0039B4FF6FF729A8226E0019B8F
:1074C40006330293039B002B1FD0019B002B1CD07F
:1074D400029B1A88039B5B889A4204D10099019805
:1074E40000F04AFB0AE0029B1A88039B5B899A42DC
:1074F40004D10C220749084800F058F800F014F9A8
:1075040004E000BF02E000BF00E000BF05B05DF88A
:1075140004FB00BFF4AA0120C0FF0F0000B585B032
:107524000A4B039300220399094806F0F1F80290EC
:10753400029B0193019B002B04D0064A122101985F
:1075440004F01CFD00BF05B05DF804FB5C750A0087
:10755400C0FF0F003C52030000B589B005900491B0
:10756400039200230093039B049A05990D4806F0A7
:10757400ECF80790079B0693069B002B06D00A4A5B
:107584001921069804F0FAFC00E020BF054806F033
:107594002DF90346002BF8D100BF00BF09B05DF8F8
:1075A40004FB00BFC0FF0F003C52030000B585B0D0
:1075B4000390029101920399019B9B001A46029841
:1075C4000DF066FD00BF05B05DF804FB00B583B0A7
:1075D40002F0D8F8034683F00103DBB2002B0CD091
:1075E40002F06CF80190019B0093009B002B04D0E7
:1075F400044A0821009804F0C1FC00BF03B05DF800
:1076040004FB00BF6452030000B585B0114A01AB0E
:107614001268114619800233120C1A7003238DF874
:10762400053001AB0C4A19460B2002F0B7F8039061
:10763400039B0293029B002B04D0084A1321029857
:1076440004F09CFC01210B2002F026F900BF05B0D8
:107654005DF804FB8C5203002D7402006452030095
:1076640008B5FFF7B3FFFFF7CFFF00BF08BD000069
:1076740000B585B005F0E4F80390039B0293029BE8
:10768400002B04D00C4A0A21029804F077FC0B4A20
:1076940001210B4805F012F90390039B0193019B10
:1076A400002B04D0044A0E21019804F067FC00BFAB
:1076B40005B05DF804FB00BF94520300217402007E
:1076C4009052030000B583B00A4B00224FF4A0315E
:1076D400184605F02DF90190019B0093009B002BA7
:1076E40004D0054A1421009804F048FC00BF03B0FC
:1076F4005DF804FBD89801209452030000B583B0D0
:1077040006F0D6FB0190019B0093009B002B04D054
:10771400044A0621009804F031FC00BF03B05DF870
:1077240004FB00BFBC52030008B506F0D7FB40BF02
:1077340020BF20BF00BF08BD7ADF704700BF1846D6
:107744007CDF704700BF1846A8DF704700BF1846AB
:10775400AADF704700BF184662DF704700BF1846B3
:1077640000B587B00DF0D0F90590059B0493049BF8
:10777400002B04D0144A0C21049804F0FFFB0023CE
:10778400019301AB194601200DF0E8FA0590059B21
:107794000393039B002B04D00B4A1121039804F09C
:1077A400EDFB01AB18460DF067FB0590059B0293BA
:1077B400029B002B04D0044A1521029804F0DEFB3E
:1077C40000BF07B05DF804FB846F0A0000B587B002
:1077D4009DF80030012262F303038DF800309DF818
:1077E4000030012262F307138DF800306B46082243
:1077F4001A491846FFF7A4FF0590059B0493049BC0
:10780400002B04D0164A2621049804F0B7FB01ABE0
:107814000822002118460DF06DFC5023ADF8043009
:10782400A023ADF806300023ADF808304FF4C87338
:10783400ADF80A3001AB1846FFF77EFF0590059BB3
:107844000393039B002B04D0054A3021039804F0D2
:1078540095FB00BF07B05DF804FB00BFB06F0A00E2
:10786400846F0A0000B583B00021094802F07BFC54
:107874000190019B0093009B002B04D0054A362104
:10788400009804F07BFB00BF03B05DF804FB00BF6D
:1078940000AB0120846F0A0000B5AFB001ABAC228D
:1078A400002118460DF026FC02238DF80430002335
:1078B4008DF8063006238DF8073001238DF88030CB
:1078C4004FF4FA5323930023249300232A9301AB08
:1078D40019460B4804F00CF92D902D9B2C932C9BEE
:1078E400002B04D0074A4C212C9804F047FB0121BB
:1078F400034804F0F0F800BF2FB05DF804FB00BFAC
:1079040040AB0120846F0A0000B58BB001AB1C2290
:10791400002118460DF0EEFB002301934FF4A03331
:1079240002934FF4F023039303238DF810300023C4
:10793400ADF8123000238DF8143000230693002391
:10794400079301AB184602F0F9FE0990099B0893CE
:10795400089B002B04D0044A6221089804F00EFB13
:1079640000BF0BB05DF804FB846F0A0010B59AB039
:107974007B4B10AC0FCB84E80F0010AB7949184651
:10798400FFF7EAFE1990199B1893189B002B04D05B
:10799400754A6D21189804F0F1FA744B9B7C8DF8AC
:1079A40052304FF4A053ADF8503014AB6F4A19461F
:1079B4000120FFF7C9FE1990199B1793179B002B01
:1079C40004D0694A7421179804F0D8FA00238DF87A
:1079D400033008AB0322002118460DF08BFB9DF801
:1079E4002030012262F303038DF820309DF820300B
:1079F400012262F307138DF820309DF82130012213
:107A040062F303038DF821309DF82130012262F3E3
:107A140007138DF821309DF82230012262F34203CE
:107A24008DF8223009AB1C22002118460DF062FBB0
:107A34009DF8243043F002038DF824309DF824305F
:107A440043F008038DF824309DF8243043F01003EC
:107A54008DF8243008AB0E9307AB0322002118469F
:107A64000DF048FB9DF81C30012262F303038DF8EE
:107A74001C309DF81C30012262F307138DF81C3072
:107A84009DF81D30012262F303038DF81D309DF82B
:107A94001D30012262F307138DF81D309DF81E304E
:107AA400012262F342038DF81E309DF81E3023F04C
:107AB40008038DF81E309DF81E3023F010038DF856
:107AC4001E309DF81E3023F001038DF81E30274B25
:107AD4009B7C8DF8063041F20143ADF8043002ABD3
:107AE4001422002118460DF005FB01AB029307ABED
:107AF40003930123ADF810300023ADF812300123B5
:107B0400ADF814300DF103030693184B188802AA3C
:107B140009A9174BFFF71CFE1990199B1693169B86
:107B2400002B04D0104AA021169804F027FA41F241
:107B34000243ADF804300D4B188802AA09A90D4B75
:107B4400FFF706FE1990199B1593159B002B04D083
:107B5400054AA921159804F011FA00BF1AB010BD06
:107B6400BC6F0A0086AF0120846F0A0074AF012045
:107B740076AF01207EAF012084B001900091019B7B
:107B840006330393039B1A88009B5B889A4215D1A2
:107B9400039B1B7B8DF80B309DF80B30032B06D019
:107BA400032B06DC012B06D0022B06D001E000BF1C
:107BB40004E000BF02E000BF00E000BF00BF04B06B
:107BC400704708B5FFF7CCFDFFF700FEFFF74AFE4C
:107BD400FFF762FEFFF798FEFFF7C8FE00BF08BD7F
:107BE400BFF34F8F00BF064BDB6803F4E062044928
:107BF400044B1343CB60BFF34F8F00BF00BFFDE7BF
:107C040000ED00E00400FA0582B0164B1B680193F6
:107C1400154B1B680093019B082B1FD1009B052B60
:107C24001AD801A252F823F0457C0200497C0200D4
:107C34004D7C0200517C0200557C0200597C0200FC
:107C440001230CE001230AE0012308E0012306E0FC
:107C5400012304E0012302E0012300E0002318468D
:107C640002B07047300100103401001082B0164B8E
:107C74001B680193154B1B680093019B082B1FD1B4
:107C8400009B052B1AD801A252F823F0A97C02000C
:107C9400AD7C0200B17C0200B57C0200B97C02001C
:107CA400BD7C020001230CE001230AE0012308E06B
:107CB400012306E0012304E0012302E0012300E0A4
:107CC4000023184602B07047300100103401001040
:107CD40082B0164B1B680193154B1B680093019BE4
:107CE400082B1FD1009B052B1AD801A252F823F0B0
:107CF4000D7D0200117D0200157D0200197D020038
:107D04001D7D0200217D020001230CE000230AE016
:107D1400002308E0002306E0002304E0002302E03F
:107D2400002300E00023184602B070473001001021
:107D34003401001082B0164B1B680193154B1B686D
:107D44000093019B082B1FD1009B052B1AD801A27D
:107D540052F823F0717D0200757D0200797D0200E6
:107D64007D7D0200817D0200857D020001230CE0FF
:107D740000230AE0002308E0002306E0002304E0D7
:107D8400002302E0002300E00023184602B07047FD
:107D9400300100103401001082B0164B1B680193AF
:107DA400154B1B680093019B082B1FD1009B052BCF
:107DB4001AD801A252F823F0D57D0200D97D020021
:107DC400DD7D0200E17D0200E57D0200E97D020027
:107DD40001230CE000230AE0002308E0002306E06E
:107DE400002304E0002302E0002300E000231846FF
:107DF40002B07047300100103401001082B0164BFD
:107E04001B680193154B1B680093019B082B1FD122
:107E1400009B052B1AD801A252F823F0397E0200E8
:107E24003D7E0200417E0200457E0200497E020042
:107E34004D7E020001230CE000230AE0002308E049
:107E4400002306E0002304E0002302E0002300E016
:107E54000023184602B070473001001034010010AE
:107E640082B0164B1B680193154B1B680093019B52
:107E7400082B1FD1009B052B1AD801A252F823F01E
:107E84009D7E0200A17E0200A57E0200A97E020062
:107E9400AD7E0200B17E020001230CE001230AE062
:107EA400012308E0012306E0012304E0012302E0AA
:107EB400012300E00023184602B07047300100108F
:107EC4003401001082B0164B1B680193154B1B68DC
:107ED4000093019B082B1FD1009B052B1AD801A2EC
:107EE40052F823F0017F0200057F0200097F02009F
:107EF4000D7F0200117F0200157F020000230CE0B9
:107F040000230AE0002308E0002306E0012304E044
:107F1400012302E0012300E00023184602B0704769
:107F2400300100103401001008B5FFF7CBFF034601
:107F3400002B07D04FF010234FF08042D3F80832C3
:107F4400C2F8583500BF08BD00BF044BD3F8003455
:107F5400002BFAD000BF00BF704700BF00E0014013
:107F640000B583B00190054A019BC2F80435FFF7C0
:107F7400EBFF00BF03B05DF804FB00BF00E001406D
:107F8400024B034A1A6000BF704700BF04990120E6
:107F94000090D00308B5FFF737FE0346002B0ED040
:107FA4004FF080430022C3F80C214FF0804300229D
:107FB400C3F810214FF080430022C3F83825FFF79F
:107FC40055FE0346002B76D04FF08053734AD3F806
:107FD4000434C2F820354FF08053704AD3F8083483
:107FE400C2F824354FF080536C4AD3F80C34C2F8ED
:107FF40028354FF08053694AD3F81034C2F82C3531
:108004004FF08053654AD3F81434C2F830354FF03A
:108014008053624AD3F81834C2F834354FF0805391
:108024005E4AD3F81C34C2F840354FF080535B4AA3
:10803400D3F82034C2F844354FF08053574AD3F86C
:108044002434C2F848354FF08053544AD3F82834C6
:10805400C2F84C354FF08053504AD3F82C34C2F850
:1080640050354FF080534D4AD3F83034C2F854356C
:108074004FF08053494AD3F83434C2F860354FF096
:108084008053464AD3F83834C2F864354FF08053ED
:10809400424AD3F83C34C2F868354FF080533F4A23
:1080A400D3F84034C2F86C354FF080533B4AD3F8D0
:1080B4004434C2F87035FFF70BFE0346002B02D0A0
:1080C400374B384A1A60FFF735FE0346002B03D0BE
:1080D400354BFB22C3F81825FFF75EFE0346002B41
:1080E4000AD0324B1B6823F00F02314B1B6803F09C
:1080F4000F032E4913430B60FFF780FE0346002B4A
:1081040003D02C4B4FF400721A60FFF7A9FE03460C
:10811400002B0DD04FF08043D3F8003403F001035B
:10812400002B05D04FF080436FF00102C3F8002408
:10813400214BD3F88830204A43F47003C2F88830C6
:10814400BFF34F8F00BFBFF36F8F00BFFFF7ECFE8D
:108154004FF01023D3F80032002B05DB4FF010232F
:10816400D3F80432002B15DA0120FFF7F9FE4FF0A3
:1081740010231222C3F80022FFF7E6FE4FF010236B
:108184001222C3F80422FFF7DFFE0020FFF7E8FE07
:10819400FFF726FDFFF7F4FE00BF08BD00C0004056
:1081A4008C5600404881030000F00040E40E00407B
:1081B400580200104096024000ED00E082B00346F1
:1081C4008DF807309DF90730002B0DDB9DF8073043
:1081D40003F01F0206499DF907305B09012000FAEC
:1081E40002F2603341F8232000BF02B0704700BFA1
:1081F40000E100E082B001900B468DF803309DF859
:108204000330019A134401221A6000BF02B0704780
:1082140084B001900B46ADF80230BDF80230019AEB
:10822400134400221A60BDF80230019A13441B68FB
:108234000393039B00BF04B0704782B001900B46C8
:10824400ADF80230BDF80230019A13441B68002BCC
:1082540014BF01230023DBB2184602B0704782B07A
:1082640001900091019B009AC3F8042300BF02B05F
:10827400704782B001900091019B009AC3F80823D3
:1082840000BF02B0704782B001900091019BD3F807
:108294000423009B1340002B14BF01230023DBB2F3
:1082A400184602B0704784B003900B4601928DF8D3
:1082B4000B309DF80B20039B02F5A872019943F83B
:1082C400221000BF04B0704782B00190019B9B0054
:1082D40003F5A0739BB2184602B0704782B00190B8
:1082E4004FF48032019B02FA03F3184602B0704740
:1082F40082B003468DF807309DF8073003F18043C0
:1083040003F5805301221A6000BF02B0704784B0A5
:108314000346ADF80630BDF8063003F1804303F59B
:10832400805300221A60BDF8063003F1804303F540
:1083340080531B680393039B00BF04B0704782B053
:108344000346ADF80630BDF8063003F1804303F56B
:1083540080531B68002B14BF01230023DBB2184693
:1083640002B07047054BD3F8003403F00103012B2E
:108374000CBF01230023DBB21846704700100040F5
:1083840000B587B0019000230493019B1B7803F090
:108394000F030393019B5B78049302238DF80B3046
:1083A400049BFF2B01D900235FE0324B1B78032B86
:1083B40003D0304B1B78042B04D1039B022B01D92F
:1083C400002352E02B4B1B78062B03D0294B1B7840
:1083D400052B04D1039B032B01D9002345E0039B08
:1083E400002B0FD1019A9DF80B301344049A2249B3
:1083F40018460CF011FE0346002B0CBF012300238A
:10840400DBB232E0039B012B03D10F238DF816302E
:108414000FE0039B022B03D155238DF8163008E09F
:10842400039B032B03D1FF238DF8163001E00023B7
:108434001BE000238DF8173011E09DF817209DF8FC
:108444000B301344019AD35C9DF816209A4201D054
:1084540000230AE09DF8173001338DF817309DF89A
:108464001730049A9A42E8D80123184607B05DF8F9
:1084740004FB00BF10990120CC6F0A0084B00346AE
:108484008DF807309DF80730002B23D07D238DF81D
:108494000F3006238DF80E30164B1B6823F0004373
:1084A40023F0FF039DF80F201343124A43F00043C7
:1084B4001360114B1B6823F0004323F070039DF8F5
:1084C4000E20120102F0700213430B4A43F00043E2
:1084D400136008E0074B094A1A60074B1B68064AF9
:1084E40023F0004313609DF80720054B1A7000BF6A
:1084F40004B070473C1700407C1700403430004003
:1085040095B10120034B01221A60034B01221A602A
:1085140000BF7047401000403810004082B00B4B41
:108524000022C3F81C21094B01225A6100BF074BEA
:10853400D3F81C31002BFAD0044BD3F848358DF80E
:1085440007309DF80730184602B07047001000400D
:1085540082B00F4B1B6801930D4B1B680D4A93426D
:108564000CBF01230023DBB20093009A1346DB0106
:1085740013445B00074A1344054A1360044B1A680A
:10858400054BC3F80425019B184602B0704700BF91
:108594000899012090AF01200010004000B583B07D
:1085A4000120FFF70BFE284B1B78042B48D1FFF763
:1085B400CFFF01900420FFF79BFE244B1B78002B78
:1085C40027D040F2E24200212148FFF76CFE3F220F
:1085D40001211F48FFF767FE0020FFF775FE0346E1
:1085E40019461B48FFF714FE0120FFF76DFE0346F2
:1085F40019461748FFF70CFE4FF400311448FFF7F3
:108604002EFE0C211248FFF7F5FD00211048FFF75C
:10861400F1FDFFF7A7FE0346002B0BD00198FFF7EF
:10862400AFFE0346002B05D00A4B1B8801339AB2D8
:10863400084B1A804FF48172002101980CF05AFD06
:1086440000BF03B05DF804FB8AAF012094B10120A0
:10865400009000408CAF012008B54FF48270FFF702
:108664006EFE0346002B0FD04FF48270FFF74FFECF
:108674001A4B1B78042B07D1194B1B78002B03D002
:1086840004211848FFF7B6FD4FF48670FFF757FE34
:108694000346002B05D04FF48670FFF738FEFFF732
:1086A4007DFF4FF48070FFF74AFE0346002B13D082
:1086B4004FF48070FFF72BFE084B1B78042B0BD173
:1086C400074B1B78002B07D00C210648FFF792FDBF
:1086D40000210448FFF78EFD00BF08BD8AAF0120CA
:1086E40094B101200090004010B50C4B1C68002090
:1086F400FFF7EAFD034619462046FFF79EFD0346B1
:10870400002B09D0054B1C680020FFF7DDFD034654
:1087140019462046FFF77CFD00BF10BD0C990120CF
:1087240000B587B00020FFF7CFFD03461946504837
:10873400FFF783FD0346002B51D00020FFF7CEFD49
:10874400034619464A48FFF79EFD0346002B46D0D0
:10875400FFF7E4FE03468DF81630464B1B78002BDA
:1087640007D09DF816305F2B23D90020FFF786FE33
:108774001FE000238DF817303F4B1B680493049BC4
:108784009BB20393049B1B0C0293039B0F2B05D9F1
:10879400029B012B02D801238DF817309DF8163067
:1087A4005E2B03D99DF81730002B02D00120FFF770
:1087B40065FEFFF7A7FE04212D48FFF71BFD0C21E2
:1087C4002B48FFF717FD0020FFF77EFD03461946EF
:1087D4002748FFF71DFD00212548FFF70BFD012069
:1087E400FFF772FD034619462148FFF726FD0346AD
:1087F400002B36D00120FFF771FD034619461C48B3
:10880400FFF741FD0346002B2BD0FFF787FE0346FD
:108814008DF80730174B1B78002B07D09DF80730D5
:108824005E2B0AD90020FFF729FE06E09DF80730E9
:108834005E2B02D80120FFF721FEFFF763FE4FF401
:1088440000310B48FFF715FD0120FFF73DFD0346FE
:1088540019460748FFF7DCFC002201210448FFF712
:1088640022FD0920FFF7AAFC00BF07B05DF804FB56
:108874000090004095B101207415004082B0034679
:108884008DF807309DF90730002B13DB9DF8073076
:1088940003F01F0209499DF907305B09012000FA22
:1088A40002F2203341F82320BFF34F8F00BFBFF300
:1088B4006F8F00BF00BF02B0704700BF00E100E04F
:1088C400044BD3F80034002B14BF01230023DBB284
:1088D400184670470000014008B50CF0C7F903467C
:1088E40083F00103DBB2002B03D109497B200BF099
:1088F400ADFBFFF7E5FF034683F00103DBB2002B7A
:1089040004D000F091FA034B00229A7000BF08BD16
:10891400CC700A0098B1012000B583B00023019304
:10892400184B1B78002B02D0852301931CE0154BB8
:1089340000229A60134B00225A60124B00221A61E3
:10894400104B0022DA60104800F034FA01900CF069
:108954008DF9034683F00103DBB2002B01D000F054
:108964004FFA084B01221A70FFF7AAFF0346002BA7
:1089740002D0044B01229A70019B184603B05DF8A3
:1089840004FB00BF98B10120658A020084B0019005
:10899400019B1B680393039B002B03D0039B1A6862
:1089A400019B1A60039B184604B0704700B583B05E
:1089B400164B1B78002B04D1154940F217100BF00D
:1089C40045FB124BDB68002B04D111494FF48C702A
:1089D4000BF03CFB00238DF807300DF1070318461C
:1089E40004F0CEF8094BDB68013B084AD360074B1F
:1089F400DB68002B01D1FFF76FFF9DF807301846A5
:108A040004F0D4F800BF03B05DF804FB98B1012072
:108A1400CC700A0000B585B003468DF807309DF888
:108A24000730002B02D10C4B039301E00B4B039353
:108A34000398FFF7ABFF0290029B002B06D0029B2A
:108A44005B689DF8072010469847F1E700BF00BF18
:108A540005B05DF804FB00BFA0B10120A8B101205E
:108A640000B583B003468DF807309DF80730002B1E
:108A740005D10A4B01225A700020FFF7CBFF9DF865
:108A84000730012B05D1054B01229A700120FFF715
:108A9400C1FF00BF03B05DF804FB00BF98B1012023
:108AA40000B583B001900091019B002B05D1054BCB
:108AB40001225A700020FFF7ADFF00BF03B05DF83C
:108AC40004FB00BF98B1012000B585B003460091B6
:108AD4008DF807309DF80730032B29D0032B35DCA4
:108AE400002B02D0012B04D030E00020FFF7C6FE9B
:108AF4002DE000238DF80F300DF10F03184604F01C
:108B04003FF8154B1B7883F00103DBB2002B01D037
:108B1400FFF702FF104BDB6801330F4AD3600E4BA3
:108B240001229A709DF80F30184604F03FF80EE0C9
:108B3400094B1B78002B04D1084940F252200BF05A
:108B440085FA00F05DF9FFF731FF00E000BF00BFD8
:108B540005B05DF804FB00BF98B10120CC700A0099
:108B640082B003468DF807309DF90730002B0CDBEB
:108B74009DF8073003F01F0205499DF907305B0992
:108B8400012000FA02F241F8232000BF02B070472E
:108B940000E100E082B0034600918DF807309DF9B2
:108BA4000730002B0ADB009BDAB20C499DF9073031
:108BB4005201D2B20B4483F800230BE0009BDAB2DB
:108BC40007499DF8073003F00F03043B5201D2B26A
:108BD4000B441A7600BF02B0704700BF00E100E00A
:108BE40000ED00E082B00190019B1B0B5BB21846C4
:108BF40002B0704700B583B003460A468DF80730CB
:108C040013468DF806309DF80630012B03D99DF8E4
:108C14000630032B0BD99DF80630042B03D99DF89D
:108C24000630072B03D908496B200BF00FFA9DF887
:108C340006209DF9073011461846FFF7ABFF00BF29
:108C440003B05DF804FB00BF24710A0000B583B0D3
:108C540003468DF807309DF907301846FFF780FF6B
:108C640000BF03B05DF804FB82B003468DF8073003
:108C74000F4A9DF90730002B00DA1F335B115BB2FA
:108C840052F823209DF90730594203F01F0301F0E5
:108C94001F0158BF4B425BB222FA03F303F00103F6
:108CA400002B14BF01230023DBB2184602B0704727
:108CB40000E100E082B001904FF08042019BC2F8D5
:108CC400083300BF02B0704782B003468DF8073006
:108CD4009DF8073003F1804301221A6000BF02B0FF
:108CE400704784B00346ADF80630BDF8063003F192
:108CF400804300221A60BDF8063003F180431B68EC
:108D04000393039B00BF04B0704782B00346ADF8E1
:108D14000630BDF8063003F180431B68002B14BFF6
:108D240001230023DBB2184602B0704782B00190E1
:108D34004FF08042019BC2F8183500BF02B0704763
:108D44004FF08043D3F818341B0C03F00103002BBD
:108D540014BF01230023DBB21846704700B583B06B
:108D640006238DF807304FF08040FFF73BFF0346A2
:108D74001846FFF779FF034683F00103DBB2002BAB
:108D840013D04FF08040FFF72DFF03461A469DF89D
:108D9400073019461046FFF72DFF4FF08040FFF7CC
:108DA40021FF03461846FFF751FF00BF03B05DF8EB
:108DB40004FB000000B585B00190019B002B03D19A
:108DC4000D49A4200BF042F9002303930B4B1B79AC
:108DD400002B02D08523039308E0084A019B13600B
:108DE400064B01221A71054B00225A71039B184647
:108DF40005B05DF804FB00BF54710A00ACB101205A
:108E040008B5074B1B79002B03D10649BD200BF095
:108E14001DF9FFF7A3FF0120FFF788FF00BF08BD7E
:108E2400ACB1012054710A0008B50D4B1B79002B1D
:108E340003D10C49F7200BF009F90220FFF73AFFA0
:108E44004FF48270FFF74DFF0C20FFF73DFF00BF8A
:108E5400FFF776FF0346002BFAD100BF00BF08BD21
:108E6400ACB1012054710A0008B54FF48070FFF7CB
:108E74004CFF0346002B14D04FF48070FFF731FFF2
:108E84000120FFF717FF114B5B7983F00103DBB27D
:108E9400002B06D00D4B01225A710C4B1B6800208D
:108EA40098474FF48270FFF730FF0346002B0AD037
:108EB4004FF48270FFF715FF0220FFF7FBFE034B10
:108EC4001B680120984700BF08BD00BFACB101205A
:108ED40082B003468DF807309DF90730002B0CDB78
:108EE4009DF8073003F01F0205499DF907305B091F
:108EF400012000FA02F241F8232000BF02B07047BB
:108F040000E100E082B0034600918DF807309DF93E
:108F14000730002B0ADB009BDAB20C499DF90730BD
:108F24005201D2B20B4483F800230BE0009BDAB267
:108F340007499DF8073003F00F03043B5201D2B2F6
:108F44000B441A7600BF02B0704700BF00E100E096
:108F540000ED00E082B00190019B1B0B5BB2184650
:108F640002B0704700B583B003460A468DF8073057
:108F740013468DF806309DF80630012B03D99DF871
:108F84000630032B0BD99DF80630042B03D99DF82A
:108F94000630072B03D908496B200BF057F89DF8CE
:108FA40006209DF9073011461846FFF7ABFF00BFB6
:108FB40003B05DF804FB00BFAC710A0000B583B0D8
:108FC40003468DF807309DF907301846FFF780FFF8
:108FD40000BF03B05DF804FB00B583B00346ADF8F1
:108FE4000630BDF80630184600F026F803461B6824
:108FF400012B0CBF01230023DBB2184603B05DF83C
:1090040004FB00B585B00346ADF80630BDF8063064
:10901400184600F011F803461A4600231360BDF801
:109024000630184600F008F803461B680393039BB8
:1090340000BF05B05DF804FB82B00346ADF806300E
:10904400BDF8063003F1804303F5C043184602B06F
:109054007047000082B00190034A019BC2F80433B8
:1090640000BF02B0704700BF0060004082B00190B2
:10907400034BD3F80423019B1340184602B07047F6
:109084000060004082B00190084A019B03F5A2737E
:1090940052F82330054943F00102019B03F5A27302
:1090A40041F8232000BF02B0704700BF00600040B9
:1090B40084B00390029113468DF80730144A039B41
:1090C40003F5A27352F82330114923F44F3323F4E8
:1090D4004073039A02F5A27241F822300C4A039BB2
:1090E40003F5A27352F82320029B1B0203F47C5164
:1090F4009DF807301B0403F440330B4304491A431F
:10910400039B03F5A27341F8232000BF04B070470A
:109114000060004082B00190054A019B03F5A273F0
:1091240052F823301B0A03F03F03184602B070477D
:109134000060004082B00190064A019B03F5A273CF
:1091440052F823301B0C03F00303DBB2184602B0C1
:10915400704700BF0060004000B583B00190019BE0
:109164001B68184600F028F90346002B04D10B496C
:109174004FF4F6700AF06AFF019B1B681F2B02D89C
:109184004FF0A04306E0019B1B6803F01F02019B04
:109194001A60034B184603B05DF804FBDC710A0047
:1091A4000003005000B585B00190084611461A46E8
:1091B40003468DF803300B468DF8023013468DF8C4
:1091C400013001AB1846FFF7C7FF03909DF8032059
:1091D4009DF802305B001A439DF801309B001A434E
:1091E4009DF818301B0242EA03019DF81C301B0451
:1091F400019A1943039B02F5E07243F8221000BF61
:1092040005B05DF804FB00B585B003900B468DF8FE
:109214000B309DF80B3000220192002200920022B4
:1092240000210398FFF7BEFF00BF05B05DF804FB03
:1092340000B585B0019001AB1846FFF78DFF039090
:10924400019A039B02F5E07253F8223023F00203E3
:109254000293019A039B02F5E072029943F82210EB
:1092640000BF05B05DF804FB00B585B001900B4666
:109274008DF8033001AB1846FFF76EFF0390019A97
:10928400039B02F5E07253F82230019A23F4403133
:10929400039B02F5E07243F82210019A039B02F546
:1092A400E07253F822109DF803301B04019A19430D
:1092B400039B02F5E07243F8221000BF05B05DF88D
:1092C40004FB00B585B0019001AB1846FFF744FFDD
:1092D4000390039800F020F80246019B22FA03F35E
:1092E40003F00103184605B05DF804FB00B585B032
:1092F400019001AB1846FFF72FFF0390019A039BDF
:1093040002F5E07253F822301B0C03F00303DBB2C6
:10931400184605B05DF804FB82B00190019BD3F8B8
:109324001035184602B0704788B00390029101923C
:10933400164A05AB92E8030083E80300039B0793F6
:1093440019E0079B9B0020336B4453F80C3CD3F883
:109354002025019B1A60079B9B0020336B4453F824
:109364000C3C019A1268C3F82025019B0433019335
:10937400079B01330793039A029B1344079A9A426B
:10938400DFD300BF00BF08B0704700BF08720A00F7
:1093940000B585B0019001AB1846FFF7DDFE0390E0
:1093A400019B012202FA03F31A46039BC3F820250A
:1093B40000BF05B05DF804FB84B00190019B5B091C
:1093C400029300230393029B002B03D0029B012BE7
:1093D40004D007E04FF0FF33039303E04FF6FF732D
:1093E400039300BF019B03F01F030193039A019BA6
:1093F40022FA03F303F00103002B14BF012300231B
:10940400DBB2184604B0704784B001900091009B11
:109414000393019BDB080293019B03F00703019371
:109424000122019B02FA03F30399029A0A44127877
:109434001340184604B0704784B001900091009B1B
:109444000393019BDB080293019B03F00703019341
:10945400039A029B13441B785AB20121019B01FA1F
:1094640003F35BB2134359B2039A029B1344CAB287
:109474001A7000BF04B0704782B001900C4A019B7F
:109484001344243393F90030002B09DB084A019B71
:109494001344243393F90030072B01DC012300E04B
:1094A400002303F00103DBB2184602B0704700BF8B
:1094B400B4B1012082B00190064A019B13442433C5
:1094C40093F90030072BCCBF01230023DBB21846ED
:1094D40002B07047B4B1012082B00190064A019BEA
:1094E4001344243393F90030DB43DBB2DB09DBB2F2
:1094F400184602B0704700BFB4B1012084B0039095
:10950400029101928DF80330029B59B20E4A039BDB
:10951400134424330A461A700B49029B019A41F8FA
:1095240023209DF8033083F00103DBB2002B08D025
:10953400029B083B039A51B2034A13440A4683F838
:10954400542000BF04B07047B4B1012082B0019030
:10955400044A019B13442433FF221A7000BF02B053
:10956400704700BFB4B1012000B583B00190044935
:109574000198FFF761FF00BF03B05DF804FB00BF73
:1095840009B2012082B00190044A019B13442433A0
:1095940093F90030184602B0704700BFB4B10120FF
:1095A40082B00190034A019B52F82330184602B05E
:1095B400704700BFB4B1012084B00190074A019BF9
:1095C4001344543393F900308DF80F309DF80F3065
:1095D40023F0C003184604B0704700BFB4B10120A3
:1095E40084B00190074A019B1344543393F900302B
:1095F4008DF80F309DF80F309B09DBB2184604B08C
:10960400704700BFB4B1012000B589B00390029146
:1096140013468DF80730FF238DF81F309DF807306F
:10962400002B01D0002300E0082305939DF80730A8
:10963400002B01D0082300E009230493059B069323
:1096440014E00F4A069B52F82330B3F1FF3F0AD1CE
:109654009DF80730029A06990398FFF74FFF069B7F
:109664008DF81F3006E0069B01330693069A049B8F
:109674009A42E6D39DF91F30184609B05DF804FB01
:10968400B4B1012082B003468DF807309DF807304D
:10969400094A4FF0FF3142F823109DF80730072B99
:1096A40007D99DF80730083B034A1344FF2283F887
:1096B400542000BF02B07047B4B1012000B583B09C
:1096C4002D4B93F85B30002B03D008230093009BB1
:1096D4004EE000238DF8073011E09DF8073018465E
:1096E400FFF76AFE0346002B04D09DF807301846A6
:1096F400FFF72CFF9DF8073001338DF807309DF8F4
:1097040007302F2BE9D900238DF8073009E09DF8A5
:1097140007301846FFF7B6FF9DF8073001338DF880
:1097240007309DF80730082BF1D906220021134891
:109734000BF0E0FC1248FFF70DFC0346022118462B
:10974400FFF710FC0E48FFF705FC03461846FFF729
:1097540035FC4FF4BE70FFF754FC4FF00040FFF7A8
:1097640079FC054B012283F85B2000230093009BC6
:10977400184603B05DF804FBB4B1012009B201201E
:1097840000600040044B93F85B30002B14BF0123AE
:109794000023DBB218467047B4B1012000B587B08E
:1097A4000390029101920398FFF706FE0346002BF3
:1097B40004D137494FF40C700AF048FC0023059398
:1097C4000398FFF789FE0346002B02D00823059374
:1097D40058E0029B9B78C3F34003DBB21A4601991D
:1097E4000398FFF711FF03468DF813309DF91330EA
:1097F400B3F1FF3F44D0029B9B78C3F38003DBB2F9
:1098040083F00103DBB2002B13D0029B9B7803F09F
:109814000103DBB2002B03D00398FFF709FD05E039
:10982400029B5B7819460398FFF7EDFC0398FFF75A
:109834009BFE029B9B7803F00203DBB2002B08D053
:109844009DF91300029B1B781A460399FFF730FC1D
:1098540018E09DF91330083B0E4A134493F9541051
:10986400029B1B785BB29B015AB29DF91330083BF3
:109874000A4351B2074A13440A4683F8542001E0CC
:1098840004230593059B184607B05DF804FB00BF4D
:1098940010720A00B4B1012000B589B001900B46E2
:1098A4008DF803300198FFF787FD0346002B04D1A0
:1098B4003A494FF418700AF0C9FB0198FFF70CFEFF
:1098C4000346002B04D1354940F261200AF0BEFB67
:1098D4000198FFF7EFFD0346002B2AD00198FFF70C
:1098E40051FE0346083B1846FFF77AFE03468DF8FF
:1098F4000F309DF80F30032B0BD10198FFF7E1FCDB
:109904000346002B01D0032300E002238DF81F300F
:1099140008E09DF80F30012B01D1022300E003235E
:109924008DF81F309DF81F3019460198FFF79CFCF5
:1099340030E00198FFF7A0FD0346002B2AD00198E0
:10994400FFF720FE03460693069B9BB240339BB26F
:109954009B00ADF81630069B1846FFF793FBBDF845
:1099640016301846FFF74DFB9DF80330002B11D03D
:109974000198FFF707FE03461846FFF711FE04900F
:10998400049B002B06D00122069B02FA03F318461F
:10999400FFF760FB00BF09B05DF804FB10720A001A
:1099A40000B585B00190019A02210020FFF7BCFCAC
:1099B400002303930BE0039B9B00019A13441B6851
:1099C400002B01D0012306E0039B01330393039B87
:1099D400012BF0D90023184605B05DF804FB000004
:1099E40000B587B00190002305935BE0344A059BE2
:1099F4001344543393F90030B3F1FF3F4ED005982C
:109A0400FFF7DAFD049001990498FFF7FDFC034683
:109A1400002B44D00598FFF7E3FD03468DF80F3083
:109A24000498FFF763FC03468DF80E309DF80E3062
:109A3400022B01D1032300E002238DF80D309DF8A1
:109A44000D3019460498FFF70FFC0498FFF7A0FCAB
:109A54000498FFF797FD03461846FFF7A1FD02900F
:109A6400029B002B1BD09DF80F30032B0FD09DF8C9
:109A74000E30022B03D19DF80F30012B07D09DF837
:109A84000E30032B0BD19DF80F30022B07D19DF81C
:109A94000F20029B11460498984700E000BF059BE5
:109AA40001330593059B002BA0D00198FFF778FFA5
:109AB4000346002B97D100BF00BF07B05DF804FB3D
:109AC400B4B1012000B58BB00023099301AB00228F
:109AD4001A605A604FF48073ADF81E300123069368
:109AE4000023089321E0BDF81E301846FFF774FAEE
:109AF4000346002B0ED00698FFF7B8FA0346002B56
:109B040008D0BDF81E301846FFF77BFA099A069B69
:109B140013430993069B5B000693BDF81E30043380
:109B2400ADF81E30089B01330893089B072BDAD944
:109B34004FF4BE70FFF750FA0346002B0DD04FF4DC
:109B4400BE70FFF75EFA099B43F00043099301AB33
:109B54001A4602210020FFF7E7FB099BDBB2002B2A
:109B640029D0012306930023089321E0069A099B38
:109B74001340002B16D00898FFF7CCFA05900898EC
:109B8400FFF7D8FA03468DF813300898FFF708FD5D
:109B94000390039B002B05D09DF81320039B1146D3
:109BA40005989847069B5B000693089B013308932E
:109BB400089B072BDAD9099B002B03DA01AB184663
:109BC400FFF70EFF00BF0BB05DF804FB08B5064BB2
:109BD4001B68002B03D1054951200AF037FA024BC8
:109BE4001B68984708BD00BF10B2012068720A00C4
:109BF40082B001900B468DF803309DF80330019A32
:109C0400134401221A6000BF02B0704784B001906F
:109C14000B46ADF80230BDF80230019A134400221D
:109C24001A60BDF80230019A13441B680393039B26
:109C340000BF04B0704782B001900B46ADF802300B
:109C4400BDF80230019A13441B68002B14BF012392
:109C54000023DBB2184602B0704784B0039002912F
:109C64000192029A039BC3F84425039B019AC3F80B
:109C7400482500BF04B0704784B00390029101925C
:109C8400029A039BC3F83425039B019AC3F8382531
:109C940000BF04B0704782B00190019BD3F84C35EB
:109CA400184602B0704782B00190019BD3F83C354E
:109CB400184602B07047000000B587B001900091CB
:109CC400009B5B7DDBB2032B23D0032B3FDC012BFA
:109CD40002D0022B05D03AE024210198FFF788FF37
:109CE40036E000238DF80C30002304930023059301
:109CF400009B9B68002B04D1174940F255100AF0D1
:109D0400A5F9009B9B68009A916903AA104698479D
:109D14001EE001238DF80C300198FFF7C4FF0346C1
:109D240004930198FFF7B7FF03460593009B9B68D4
:109D3400002B04D1084940F261100AF087F9009B16
:109D44009B68009A916903AA1046984700E000BFF7
:109D540000BF07B05DF804FB1C730A0000B585B0B2
:109D64000390029113468DF80730029B9DF807205B
:109D74005A7502990398FFF79FFF00BF05B05DF87D
:109D840004FB00B583B0019000914FF494710198E5
:109D9400FFF751FF0346002B24D04FF49471019830
:109DA400FFF734FF009B5B7DDBB2012B19D1009BD5
:109DB400D968009B1B681A460198FFF74EFF009B69
:109DC4001969009B5B681A460198FFF755FF282123
:109DD4000198FFF70DFF022200990198FFF7BEFFDB
:109DE40000E000BF4FF482710198FFF724FF03469F
:109DF400002B10D04FF482710198FFF707FF009BEE
:109E04005B7DDBB2022B05D1032200990198FFF799
:109E1400A5FF00E000BF00BF03B05DF804FB000035
:109E240008B503490348FFF7ACFF00BF08BD00BFF6
:109E340018B201200030004090DF704700BF184680
:109E4400A5DF704700BF1846B5DF704700BF18464E
:109E540082B00190019BFA221A80019B17225A803A
:109E6400019B00221A71019B00225A71019B1B2243
:109E74009A71019B1B22DA7100BF02B0704700B5D2
:109E840089B003460A46ADF806301346ADF80430EF
:109E9400BDF80430ADF81430BDF80430ADF8163018
:109EA4000023ADF818300023ADF81A3003AB0022BC
:109EB4001A609A8003AA05A9BDF806301846FFF770
:109EC400BBFF0790079B002B02D0BDF80C30002B82
:109ED400079B184609B05DF804FB00B585B00190F6
:109EE4000091009B9B88ADF80E30BDF80E30DB006E
:109EF400019A134406330293019B1A79029B9A71C7
:109F0400009BDB7B012B02D0022B05D009E0019BD7
:109F14001A88029B1A8004E0019B5A88029B1A80CB
:109F240000BF029B9A79029BDB799A4208D9029B73
:109F34009B791A46BDF80E3011461846FFF79FFF6D
:109F440000BF05B05DF804FB00B583B0019000913B
:109F5400009B9B88DB00019A134406331846FFF7E5
:109F640077FF00BF03B05DF804FB00B587B0019034
:109F74000091009B9B88ADF81630009B5B89ADF87F
:109F84001430BDF81630DB00019A134406330493F1
:109F9400049B1B88BDF81420934228BF13469AB231
:109FA400049B5A80049B5B88172B38BF17239AB2F3
:109FB400049B5A80019B1B6B002B15D0049B5B797F
:109FC400002B11D040F67723ADF80830BDF81630D9
:109FD400ADF80A30049B5B88ADF80C30019B1B6B19
:109FE40002AA114601989847049B00225A71049BC7
:109FF40000221A7100BF07B05DF804FB00B589B0F8
:10A0040001900091009B9B88ADF81E30009BDB887B
:10A01400ADF81C30BDF81E30DB00019A1344063342
:10A024000693BDF81C30172B38BF1723ADF81C302E
:10A03400069B1B88BDF81C20934228BF13469AB286
:10A04400069B5A80069B00221A71069B1A88BDF84B
:10A054001E3011461846FFF7F7FE0590069B5B7904
:10A06400002B16D1019B1B6B002B13D040F67723DA
:10A07400ADF80C30BDF81E30ADF80E30069B5B8891
:10A08400ADF81030019B1B6B03AA11460198984749
:10A0940000E000BF09B05DF804FB30B591B0019059
:10A0A4000091009B04AC1D1D0FCD0FC40FCD0FC438
:10A0B40095E8070084E80700BDF81030ADF83E309D
:10A0C400BDF81420BDF83E30D1B2019ADB00134430
:10A0D4000A465A73019B1B6B002B19D002AB00225A
:10A0E4001A609A804DF67A23ADF80830BDF83E30F8
:10A0F400ADF80A30BDF83E30019ADB0013445B7BB7
:10A104008DF80C30019B1B6B02AA114601989847ED
:10A1140000BF11B030BD00B587B001900091009B25
:10A1240004330593059B1B88DB00019A1344063313
:10A134000493059B9B888DF80F30049B9B799DF8B5
:10A144000F20934228BF13468DF80E30059B1B88C1
:10A154009DF80E2092B211461846FFF790FE00BFFC
:10A1640007B05DF804FB00B585B001900091019B38
:10A17400002B01D10E231DE0019B009A1A63019B61
:10A18400FA221A80019BFA225A80019B1B221A711F
:10A19400002303930AE0039BDB00019A1344063374
:10A1A4001846FFF755FE039B01330393039B042BCF
:10A1B400F1D90023184605B05DF804FB00B587B05B
:10A1C40001900091009B0593019B9B88ADF8123090
:10A1D400BDF81230042B00F28480019B1B88552BA0
:10A1E40048D0552B55DC242B32DC102B51DB103B93
:10A1F400142B4ED801A252F823F000BF5BA2020038
:10A2040065A2020097A2020097A2020097A2020090
:10A2140097A2020097A2020097A2020097A202004E
:10A2240097A2020097A2020097A2020097A202003E
:10A2340097A2020097A2020097A2020097A202002E
:10A2440097A2020097A202008DA2020083A202003C
:10A254003A2B0AD01DE001990598FFF73EFE19E05C
:10A2640001990598FFF770FE14E001990598FFF72E
:10A274007CFE0FE001990598FFF7C0FE0AE0019902
:10A284000598FFF70AFF05E001990598FFF743FFDA
:10A2940000E000BFBDF81230059ADB0013449B7A3E
:10A2A400002B1FD0BDF81230059ADB001344DA8866
:10A2B400BDF8123011461846FFF7C2FD0390039B08
:10A2C400002B0FD1BDF81230059ADB001344002295
:10A2D4009A72BDF81230059ADB0013440122DA7237
:10A2E40000E000BF07B05DF804FB00BFB0DF7047BB
:10A2F40000BF184666DF704700BF184600B585B03A
:10A304000190019B1B7A002B18D0019B5B880021D4
:10A314001846FFF7EFFF0390039B002B03D1019B2B
:10A3240000221A720AE0039B112B03D1019B012224
:10A334001A7203E0019B5B680398984700BF05B05D
:10A344005DF804FB00B583B001900091009B1B797C
:10A35400012B0BD1009B1A88019B5B889A4205D183
:10A36400019B01221A720198FFF7C8FF00BF03B0D6
:10A374005DF804FB82B00190009100BF02B0704709
:10A3840000B589B001900091009B1A88019B5B88FD
:10A394009A4236D1009B02330793079B1B78022B0A
:10A3A40031D1079B1B7A042B07D0079B1B7A062B02
:10A3B40003D0079B1B7A052B27D102AB00221A601E
:10A3C4005A609A60DA6002238DF808304FF4C07343
:10A3D400ADF80C30079B1B7A052B02D10023ADF896
:10A3E4000C30009B1B8802AA11461846FFF77EFF1B
:10A3F4000690069B002B09D0019B5B680698984742
:10A4040004E000BF02E000BF00E000BF09B05DF857
:10A4140004FB00B585B001900091009B002B43D054
:10A42400019B002B40D0009B0393039B1B78DE2BE6
:10A434003AD1019B9A88039B5B889A4202D1039884
:10A44400FFF75CFF019B1B88512B18D0512B28DC94
:10A45400112B1BD0112B24DC012B02D0022B07D093
:10A464001FE0019B043319460398FFF76BFF1BE0C1
:10A47400019B043319460398FFF77CFF14E0019B0A
:10A48400043319460398FFF77BFF0DE0019B9A887C
:10A49400039B5B889A4206D1039B4FF6FF725A8056
:10A4A40001E000BF00E000BF05B05DF804FB75DF0C
:10A4B400704700BF184676DF704700BF18467ADF42
:10A4C400704700BF18467BDF704700BF1846000086
:10A4D40084B00346ADF806300023039316E00F4919
:10A4E400039A13469B0013449B000B441B88BDF83E
:10A4F40006209A4207D1039A13469B0013449B00FB
:10A50400064A134406E0039B01330393039B042B85
:10A51400E5D90023184604B0704700BFD8B2012023
:10A5240082B001900B46ADF80230019BBDF80220C9
:10A534001A80019B00221A72019B054903F10A0249
:10A544000B4603CB1060516000BF02B0704700BFE0
:10A5540058B3012082B00190019B4FF6FF721A801C
:10A5640000BF02B0704788B00390029111461A46AA
:10A574000B46ADF806301346ADF80430039B9B88B8
:10A584001A46BDF8063013440793039B9B8819466B
:10A59400039B9B88BDF80620934228BF13469BB2B9
:10A5A400CB1A0693039BDB881A46BDF80430134488
:10A5B4000593039BDB881946039BDB88BDF80420C5
:10A5C400934228BF13469BB2CB1A0493029B5A882A
:10A5D400039B1B889A4205D3029B5A88039B5B8882
:10A5E4009A4201D900231CE0029B9B881A46069BD1
:10A5F400934205D8029B9B881A46079B934201D23B
:10A6040000230EE0029BDB881A46049B934205D884
:10A61400029BDB881A46059B934201D2002300E08B
:10A624000123184608B0704700B583B00190064B6B
:10A634009B69002B03D0044B9B690198984700BF8A
:10A6440003B05DF804FB00BF3CB3012000B585B046
:10A6540003460091ADF80630BDF80630009918465F
:10A66400FFF725FF0390039B002B05D0039B112BC1
:10A6740002D00398FFF7D8FF039B002B0CBF0123E4
:10A684000023DBB2184605B05DF804FB00B589B0C1
:10A694000190019B0793079B9BB21846FFF718FF95
:10A6A4000690069B002B42D0069B1A7A224B1B7BFA
:10A6B4009A4215D2079B9AB2069B0A331946104652
:10A6C400FFF7C4FF03468DF813309DF81330002BB9
:10A6D4002DD0069B1B7A0133DAB2069B1A7226E050
:10A6E400069B00221A72144B1B7C002B0FD0079B75
:10A6F4009BB23B211846FFF7DEFE0590059B002B1D
:10A7040005D0059B082B02D00598FFF78DFF0A4B57
:10A714005B69002B0BD000238DF80C30079B9BB298
:10A72400ADF80E30044B5B6903AA1046984700BF8E
:10A7340009B05DF804FB00BF3CB3012030B587B01D
:10A744000190019B002B01D10E2353E02B4A019B66
:10A7540014461D460FCD0FC495E8070084E8070092
:10A76400264B274A1A60019B1B68002B11D0019BC2
:10A774001B681846FFF7A3FE0490049B002B01D02E
:10A78400049B37E0019B1A681D4B1068516803C392
:10A7940008E01B48FFF797FE0490049B002B01D0B0
:10A7A400049B27E00023059320E0059A13469B00B1
:10A7B40013449B00134A134403930398FFF7CAFE00
:10A7C400059B5B01104A1A44039B5A60039B0433A4
:10A7D4000E4A0021184602F071F80490049B002BE5
:10A7E40001D0032306E0059B01330593059B042B4D
:10A7F400DBD90023184607B030BD00BF3CB30120AD
:10A8040058B30120D8B2012038B2012091A6020029
:10A8140000B587B003460091ADF80630009B5B7A23
:10A82400002B1AD1009B1B7A002B03D1164B5B68BB
:10A83400059302E0144B9B680593009B5B68BDF88D
:10A8440006200599184602F073F80490049B002B27
:10A8540016D00498FFF7E8FE12E0009B00221A725B
:10A86400094B5B69002B0BD001238DF80C30BDF82C
:10A874000630ADF80E30044B5B6903AA10469847C6
:10A8840000BF07B05DF804FB3CB3012000B585B000
:10A894000190019BDB7B8DF80F30019B9B88ADF809
:10A8A4000C309DF80F30012B2AD14FF6FF70FFF7C3
:10A8B4000FFE0290029B002B03D10420FFF7B4FE8D
:10A8C4001FE0BDF80C3019460298FFF729FE029BE1
:10A8D40003F10A00019B03F110010A230522FFF78B
:10A8E40042FE03461A46029B5A72074BDB89002B31
:10A8F40007D1BDF80C3002991846FFF789FF00E034
:10A9040000BF05B05DF804FB3CB3012000B587B07F
:10A914000190019B9B88ADF81630BDF8163018469F
:10A92400FFF7D6FD0490049B002B0ED0049B5B68BC
:10A93400184602F055F80390039B002B02D00398AD
:10A94400FFF772FE0498FFF705FE00BF07B05DF83D
:10A9540004FB000000B587B00190019B063305930A
:10A96400059B1A88194BDB899A422BD1059B5B897D
:10A97400022B27D1019B9B88ADF81230BDF8123011
:10A984001846FFF7A5FD0390039B002B1AD0059BE7
:10A994000C33184601F0DCFA0346002B06D0BDF850
:10A9A400123003991846FFF733FF0BE0039B5B68F3
:10A9B400184602F015F80290029B002B02D0029870
:10A9C400FFF732FE00BF07B05DF804FB3CB3012083
:10A9D40000B585B00190019B9B88ADF80E30BDF8A1
:10A9E4000E301846FFF774FD0290029B002B13D023
:10A9F400029B03F10A00019B03F108010A230522CB
:10AA0400FFF7B1FD03461A46029B5A72BDF80E3099
:10AA140002991846FFF7FCFE00BF05B05DF804FB81
:10AA240000B583B001900091019B1B88502B12D07C
:10AA3400502B18DC122B12D0122B14DC102B02D04A
:10AA4400112B04D00FE00198FFF720FF0CE00198D0
:10AA5400FFF75CFF08E00198FFF77CFF04E0019832
:10AA6400FFF7B6FF00E000BF00BF03B05DF804FBD2
:10AA74006DDF704700BF184679DF704700BF184686
:10AA84007DDF704700BF184664DF704700BF18467B
:10AA940082B003460091ADF80630BDF80630DAB254
:10AAA400009B1A70BDF806301B0A9AB2009B013352
:10AAB400D2B21A700223184602B0704700B589B0AA
:10AAC400039002911346ADF80630029B1B8803F1F4
:10AAD4000902BDF806309A4201D90C2353E004ABB5
:10AAE4001846FFF7C5FF0790079B0693069B002BAC
:10AAF40001D0069B47E0029B1B881A46039B134424
:10AB040008221A70029B1B8801339AB2029B1A8096
:10AB1400029B1B881A46039B13441B221A70029B38
:10AB24001B8801339AB2029B1A80029B1B881A4627
:10AB3400039B981804AB0133062219460AF0A8FABD
:10AB4400029B1B8806339AB2029B1A809DF8103030
:10AB540023F00103DBB2002B07D1029B1B881A46AA
:10AB6400039B134400221A7006E0029B1B881A46BA
:10AB7400039B134401221A70029B1B8801339AB26F
:10AB8400029B1A800023184609B05DF804FB00B547
:10AB940089B0039002910192ADF80230039B1B78B7
:10ABA400012B05D1039B5B78002B01D1072391E096
:10ABB400019B1B889A1CBDF802309A420ED8039B55
:10ABC4001B78012B0CD1019B1B881A46039B5B78D5
:10ABD40013449A1CBDF802309A4201D90C2379E03F
:10ABE400019B1B88BDF80220D31A9BB2023BADF82F
:10ABF4001C30BDF81C30ADF81230019B1B880233A9
:10AC0400029A13440DF1120211461846FFF738FF59
:10AC14000690069B0593059B002B01D0059B59E0EC
:10AC2400039B1B78022B06D0039B5B781A46BDF866
:10AC340012309A4209D3BDF81230BDF81C209A4252
:10AC440003D309238DF81F3016E008238DF81F3035
:10AC5400039B1B78012B0BD1039B5B781A46BDF831
:10AC64001C30934204D3039B5B78ADF8123003E0AD
:10AC7400BDF81C30ADF81230BDF81230FE2B01D9EE
:10AC84000C2327E0BDF81230DAB2019B1B88194669
:10AC9400029B0B440132D2B21A70019B1B88013310
:10ACA4009AB2019B1A80019B1B881A46029B13448B
:10ACB4009DF81F201A70019B1B8801339AB2019BD7
:10ACC4001A80019B1A88BDF8123013449AB2019B72
:10ACD4001A800023184609B05DF804FB00B589B05A
:10ACE400039002911346ADF80630029B1B881A1D8F
:10ACF400BDF806309A4201D90C233AE00DF116034F
:10AD04001846FFF7B9FE0790079B0693069B002B96
:10AD140001D0069B2DE0029B1B881A46039B13441B
:10AD240003221A70029B1B8801339AB2029B1A8079
:10AD3400029B1B881A46039B134419221A70029B18
:10AD44001B8801339AB2029B1A80BDF81620029B1D
:10AD54001B881946039B0B4419461046FFF798FEBF
:10AD640003461A46029B1B8813449AB2029B1A801C
:10AD74000023184609B05DF804FB84B002910192E7
:10AD84001A4603468DF80F301346ADF80C30019B7C
:10AD94001B88DA1CBDF80C309A4201D90C2328E038
:10ADA400019B1B881A46029B134402221A70019BC2
:10ADB4001B8801339AB2019B1A80019B1B881A4697
:10ADC400029B134401221A70019B1B8801339AB21F
:10ADD400019B1A80019B1B881A46029B13449DF811
:10ADE4000F201A70019B1B8801339AB2019B1A80B1
:10ADF4000023184604B0704784B0029101921A46A9
:10AE040003468DF80F301346ADF80C30019B1B88B8
:10AE1400DA1CBDF80C309A4201D90C2328E0019BBE
:10AE24001B881A46029B134402221A70019B1B883A
:10AE340001339AB2019B1A80019B1B881A46029B1C
:10AE440013440A221A70019B1B8801339AB2019B96
:10AE54001A80019B1B881A46029B13449DF80F20FD
:10AE64001A70019B1B8801339AB2019B1A8000233C
:10AE7400184604B0704700B58FB0039001930B4699
:10AE84008DF80B3013468DF80A3000238DF83330DB
:10AE9400109B1B88ADF8303000230D9370E0039BAA
:10AEA4005A680D9B9B001A4405AB106818600DF19D
:10AEB4001B0105AB00221846FFF7E6FD0A900A9B2A
:10AEC4000993099B002B01D0099B7BE09DF81B3063
:10AED4009DF80A209A4250D19DF83330002B01D0BE
:10AEE400002300E002238DF82330109B1B881A46B0
:10AEF4009DF81B301A449DF823301A44BDF84430A1
:10AF04009A4201DD0C235DE09DF8333083F00103A8
:10AF1400DBB2002B16D0109B1B8801339AB2109B16
:10AF24001A80109B1B881A46019B13449DF80B2022
:10AF34001A70109B1B8801339AB2109B1A8001234C
:10AF44008DF83330109B1B881A46019B1A440DF16F
:10AF54001B0105AB1846FFF797FD0A900A9B079360
:10AF6400079B002B01D0079B2CE0109B1B889DF8AE
:10AF74001B2013449AB2109B1A800D9B01330D932E
:10AF8400039B1B881A460D9B934288DB9DF8333044
:10AF9400002B16D0109B1A88BDF83030D31A9BB200
:10AFA400013BADF82E30BDF82E30FF2B01D90C2318
:10AFB40008E0BDF83030019A1344BDF82E20D2B217
:10AFC4001A70002318460FB05DF804FB00B58BB06F
:10AFD400059003930B468DF8133013468DF8123009
:10AFE4009DF81310BDF8343001930C9B0093039B20
:10AFF40002220598FFF73FFF0990099B0893089BDD
:10B00400002B01D0089B14E09DF81210BDF83430D9
:10B0140001930C9B0093039B10220598FFF72BFFD1
:10B024000990099B0793079B002B01D0079B00E025
:10B03400002318460BB05DF804FB82B00190019B1D
:10B044001B88052B0AD9019B1B88B3F5486F07D9C8
:10B05400019B1B884FF6FF72934201D0072325E022
:10B06400019B5B88052B0AD9019B5B88B3F5486F6C
:10B0740007D9019B5B884FF6FF72934201D00723E7
:10B0840014E0019B1B884FF6FF7293420DD0019B85
:10B094005B884FF6FF72934207D0019B1A88019B8D
:10B0A4005B889A4201D9072300E00023184602B0C6
:10B0B400704700B587B0039002910192ADF8023059
:10B0C400019B1B889A1DBDF802309A4201D90C23BA
:10B0D4004BE00398FFF7B1FF0590059B0493049B95
:10B0E400002B01D0049B40E0019B1B881A46029B65
:10B0F400134405221A70019B1B8801339AB2019BE9
:10B104001A80019B1B881A46029B134412221A7050
:10B11400019B1B8801339AB2019B1A80039B1A88F6
:10B12400019B1B881946029B0B4419461046FFF7E6
:10B13400AFFC03461A46019B1B8813449AB2019B39
:10B144001A80039B5A88019B1B881946029B0B4457
:10B1540019461046FFF79CFC03461A46019B1B88C0
:10B1640013449AB2019B1A800023184607B05DF875
:10B1740004FB00B587B0039002910192ADF8023050
:10B18400039B9B8802330593019B1B881A46059BEE
:10B1940013449A1CBDF802309A4201D90C2353E09F
:10B1A400059BFE2B01D90C234EE0059BDAB2019BD3
:10B1B4001B881946029B0B440132D2B21A70019BC0
:10B1C4001B8801339AB2019B1A80019B1B881A4683
:10B1D400029B1344FF221A70019B1B8801339AB20D
:10B1E400019B1A80039B1A88019B1B881946029BAA
:10B1F4000B4419461046FFF74BFC03461A46019BC5
:10B204001B8813449AB2019B1A80039B9B88002BD2
:10B2140019D0039B9B68002B01D1072314E0019BE9
:10B224001B881A46029B9818039B9968039B9B886A
:10B234001A4609F02DFF019B1A88039B9B8813442F
:10B244009AB2019B1A800023184607B05DF804FBEC
:10B2540000B589B0039002910192ADF80230039BCE
:10B264009B6A002B01D1072371E000238DF81F3066
:10B2740065E0039B996A9DF81F2013465B00134405
:10B284009B000B440693069B9B8802330593059B06
:10B29400FE2B01D90C235AE0059BDAB2019B1B88D3
:10B2A4001946029B0B440132D2B21A70019B1B88CF
:10B2B40001339AB2019B1A80019B1B881A46029B98
:10B2C400134416221A70019B1B8801339AB2019B06
:10B2D4001A80069B1A88019B1B881946029B0B4403
:10B2E40019461046FFF7D4FB03461A46019B1B88F8
:10B2F40013449AB2019B1A80069B9B88002B19D099
:10B30400069B9B68002B01D1072320E0019B1B882F
:10B314001A46029B9818069B9968069B9B881A46B6
:10B3240009F0B6FE019B1A88069B9B8813449AB2C7
:10B33400019B1A809DF81F3001338DF81F30039B49
:10B3440093F82C309DF81F209A4292D3002318467C
:10B3540009B05DF804FB00B595B005900491039223
:10B3640000231393039B1B88ADF84A30039B0022F0
:10B374001A80059B93F82D30002B0ED0BDF84A306F
:10B384001A4603990498FFF799FB1390139B1193A2
:10B39400119B002B01D0119BD8E0059B9B78002BBF
:10B3A4000ED0BDF84A301A4603990498FFF796FC6C
:10B3B4001390139B1093109B002B01D0109BC5E09E
:10B3C400059BDB78002B10D0059BDB7858B2BDF8C9
:10B3D4004A30039A0499FFF7D0FC1390139B0F9300
:10B3E4000F9B002B01D00F9BB0E0059B5B68002BEB
:10B3F40011D0059B5B6893F90000BDF84A30039AAD
:10B404000499FFF7F9FC1390139B0E930E9B002BEA
:10B4140001D00E9B9AE0059B1B89002B14D0059B41
:10B4240003F10800BDF84A300193039B0093049B89
:10B4340006220221FFF7CAFD1390139B0D930D9B67
:10B44400002B01D00D9B81E0059B1B8A002B14D09F
:10B45400059B03F11000BDF84A300193039B009350
:10B46400049B07220321FFF7B1FD1390139B0C9358
:10B474000C9B002B01D00C9B68E0059B1B8B002BC5
:10B4840014D0059B03F11800BDF84A300193039BC7
:10B494000093049B15221421FFF798FD1390139B2E
:10B4A4000B930B9B002B01D00B9B4FE0059B1B6A5E
:10B4B400002B0FD0059B186ABDF84A30039A0499F3
:10B4C400FFF7F7FD1390139B0A930A9B002B01D0FF
:10B4D4000A9B3BE0059B5B6A002B0FD0059B586AD7
:10B4E400BDF84A30039A0499FFF743FE1390139B67
:10B4F4000993099B002B01D0099B27E0059B93F836
:10B504002C30002B0ED0BDF84A30039A04990598CC
:10B51400FFF79EFE1390139B0893089B002B01D00A
:10B52400089B13E0059B1B78002B0ED0BDF84A3016
:10B53400039A04990598FFF72AFB1390139B07932A
:10B54400079B002B01D0079B00E0139B184615B006
:10B554005DF804FB86B0039001921A460B46ADF8E1
:10B564000A3013468DF80930039B002B02D0019B4F
:10B57400002B01D100235BE00023ADF816300CE072
:10B58400BDF81630039A13441B781A46BDF81630DA
:10B5940013449BB20133ADF81630BDF816305A1C73
:10B5A400BDF80A309A420FDA019B1B88BDF81620B9
:10B5B4009A42E5D3BDF816300133039A13441B783D
:10B5C4009DF809209A42DBD1BDF81620BDF80A3057
:10B5D4009A4201D300232BE0BDF816300233ADF8B4
:10B5E4001430BDF81630039A13441B78002B07D08F
:10B5F400BDF81630039A13441B78013B9BB200E05C
:10B604000023ADF81230BDF81230002B08D0BDF87D
:10B614001420BDF812301A44BDF80A309A4201DDF4
:10B62400002305E0019BBDF814201A80BDF81230F8
:10B63400184606B0704700B585B001900B46ADF8CA
:10B64400023013468DF801300023ADF80C309DF81C
:10B65400013003AABDF802100198FFF77BFF0346EF
:10B66400ADF80E30BDF80E30002B01D1002304E0FC
:10B67400BDF80C301A46019B1344184605B05DF81A
:10B6840004FB72DF704700BF184673DF704700BFCA
:10B69400184682B00190019B93F83034184602B0EA
:10B6A400704784B00190002303930AE0019A039B3E
:10B6B40013441B78002B01D0012306E0039B0133C4
:10B6C4000393039B052BF1D90023184604B070475C
:10B6D40082B003468DF807309DF807305A1C074B9B
:10B6E40083FB02135910D317C91A0B469B000B4452
:10B6F400D11ACBB2184602B0704700BF67666666BF
:10B7040082B001900091009BDB7B012B04D1009B54
:10B714009A88019BA3F8242400BF02B0704700B5A7
:10B7240085B001900091019B002283F82E24009B98
:10B734009A88019BB3F824349A4216D1019B1B7951
:10B7440083F00103DBB2002B0FD00121019800F03C
:10B75400ABFA0390039B002B07D0019B9B6B002B40
:10B7640003D0019B9B6B0398984700BF05B05DF81D
:10B7740004FB00B585B001900091009B1B88262B2B
:10B784001ED1009B1B7A012B03D0009B1B7A022B3A
:10B7940017D1019B9B781846FFF79AFF0346194679
:10B7A400019800F081FA0390039B002B09D0019BC0
:10B7B4009B6B002B05D0019B9B6B0398984700E083
:10B7C40000BF05B05DF804FB00B585B001900B46E1
:10B7D4008DF80330019B03F227431846FFF761FFFE
:10B7E40003468DF80F309DF80330013B032B33D80B
:10B7F40001A252F823F000BF0DB8020031B80200D4
:10B8040045B8020051B80200019B9B79002B0DD072
:10B81400019B93F8243083F00103DBB2002B05D0A5
:10B824009DF80F30002B01D0012316E0019BDB793A
:10B83400002B05D09DF80F30002B01D002230CE023
:10B84400019B1B7A002B01D0032306E0019B5B7A4A
:10B85400002B01D0042300E00023184605B05DF856
:10B8640004FB00BF82B001900091019B012283F888
:10B874003120019B0022C3F82024019B03F22642BD
:10B88400009B5A60009B00229A60009B02221A705F
:10B89400009B80229A810023184602B0704782B030
:10B8A40001900091019B022283F83120019B93F8BF
:10B8B4002430002B03D0009B07221A7002E0009B67
:10B8C40003221A70019B1B699AB2009B9A81019B07
:10B8D4000022C3F82024019B03F22642009B5A60F5
:10B8E400019BDA68009B9A600023184602B07047F7
:10B8F40000B583B00190019B5B79002B0FD0019BB5
:10B9040093F82E3483F00103DBB2002B07D00198A7
:10B91400FFF7BFFE0346002B01D0012300E0002304
:10B9240003F00103DBB2184603B05DF804FB00B575
:10B9340085B001900B468DF80330019BD3F81004B9
:10B94400019BB3F8143401221946FFF774FE0390E7
:10B95400039B002B03D0039B9DF803201A70019BCB
:10B9640003F15400019B03F58261019B3C331A46A9
:10B97400FFF787FE0346184605B05DF804FB00B5E3
:10B9840085B001900091019B5A69009B9A60019BCC
:10B994009B699AB2009B9A81019B93F82430002BF7
:10B9A40004D0019B062283F83C2003E0019B012282
:10B9B40083F83C200198FFF79BFF0346002B13D02C
:10B9C400009B02221A7504210198FFF7B0FF03902F
:10B9D400039B0293029B002B01D0029B0FE0019B6F
:10B9E400052283F8312003E0019B032283F83120F0
:10B9F400019B03F58262019BC3F8202400231846AF
:10BA040005B05DF804FB00B585B001900091019B81
:10BA1400DA69009B9A60019B1B6A9AB2009B9A8127
:10BA2400019B93F82430002B04D0019B062283F859
:10BA34003C2003E0019B012283F83C200198FFF79E
:10BA440057FF0346002B13D0009B02221A750421D2
:10BA54000198FFF76CFF0390039B0293029B002B5A
:10BA640001D0029B0FE0019B062283F8312003E002
:10BA7400019B042283F83120019B03F58262019B20
:10BA8400C3F820240023184605B05DF804FB82B0F7
:10BA94000190019B9B78002B06D0019B93F82030EA
:10BAA400002B01D0002300E00123184602B07047A8
:10BAB40084B00190019B93F82430002B03D0EE2333
:10BAC400ADF80E3002E01F23ADF80E30BDF80E3095
:10BAD400184604B0704782B001900B468DF80330CD
:10BAE400019B9DF8032083F8302000BF02B070470B
:10BAF40030B587B001900091009B002B02D0019BD0
:10BB0400002B01D10E23B8E0009B78331846FFF7D1
:10BB1400BEFF034683F00103DBB2002B01D00723F1
:10BB2400ABE0019B00229A70019A009B141D03F163
:10BB340078050FCD0FC40FCD0FC495E8070084E836
:10BB44000700019B002283F83020009BD3F8A42037
:10BB5400019B5A63009BD3F8A820019B9A63019B25
:10BB64004FF6FF72A3F82424019B03F58262019B24
:10BB7400C3F82024019B03F2264307220021184620
:10BB840009F0B8FA019B1B7883F00103DBB2002BA8
:10BB940003D0019BFF2283F85420019B03F155023B
:10BBA400019BC3F810240198FFF782FF03461A464D
:10BBB400019BA3F814240098019B03F15501019BF8
:10BBC40003F214431A46FFF7C6FB0590059B049342
:10BBD400049B002B01D0049B4FE0019B03F2312214
:10BBE400019BC3F818240198FFF762FF03461A4625
:10BBF400019BA3F81C24009B03F13C00019BD3F898
:10BC04001814019B03F21C431A46FFF7A4FB05908A
:10BC1400059B0393039B002B01D0039B2DE0019B09
:10BC2400012283F85120019B9B699AB2019BA3F8DE
:10BC34004820019B012283F83C20019B00221A64C6
:10BC4400019B002283F85020019B5A69019B5A648E
:10BC5400019B03F15400019B3C331A460021FFF77A
:10BC640010FD0590059B0293029B002B01D0029BC3
:10BC740003E0019B01221A70059B184607B030BDF2
:10BC840082B00190019B1B68012B07D0019B1B68AC
:10BC9400022B03D0019B1B68042B01D1012300E07C
:10BCA4000023184602B0704700B585B001900B46DA
:10BCB4008DF80330019B1B7883F00103DBB2002B6A
:10BCC40001D0082309E1019B9DF803209A70019B90
:10BCD40003F2264307220021184609F00BFA019BC0
:10BCE4009B79002B03D0019B9B78012B0FD0019BE8
:10BCF400DB79002B03D0019B9B78012B07D0019BA0
:10BD0400DB79002B14D0019B9B78022B10D1019B73
:10BD14005B6B002B08D0019B012283F82D24019B2F
:10BD24005B6B0820984703E0019B002283F82D24D5
:10BD34009DF8033019460198FFF746FD03461A465D
:10BD4400019B9A70019B5B6B002B20D0019B9B781D
:10BD5400032B03D0019B9B78042B18D1019B5B79A7
:10BD6400002B14D0019B93F82E3483F00103DBB233
:10BD7400002B0CD0019B002283F83024019B01226C
:10BD840083F82F24019B5B6B0720984703E0019BFA
:10BD9400002283F82F24019B3C33182200211846EB
:10BDA40009F0A8F9019B012283F83C20019B2C3364
:10BDB4001846FFF765FF0346002B06D0019BDB6A9C
:10BDC400DAB2019B83F8512003E0019B012283F83E
:10BDD4005120019B93F82430002B12D0019B28336F
:10BDE4001846FFF74DFF0346002B06D0019B9B6AC4
:10BDF400DAB2019B83F8522003E0019B012283F80D
:10BE04005220019B002283F85020019B9B78042B35
:10BE140031D801A252F823F071BE020031BE0200F3
:10BE240041BE020051BE020061BE0200019B3C33D0
:10BE340019460198FFF716FD03901DE0019B3C3362
:10BE440019460198FFF72BFD039015E0019B3C3345
:10BE540019460198FFF793FD03900DE0019B3C33D5
:10BE640019460198FFF7CFFD039005E0019B0022DE
:10BE740083F8312000E000BF019B9B78002B20D089
:10BE8400019B03F15400019BD3F82014019B3C3324
:10BE94001A46FFF7F6FB0390039B002B01D0039B8C
:10BEA4001BE0019B93F85420019B93F83030194612
:10BEB4001046FFF7EAFB0390039B002B01D0039B82
:10BEC4000BE0019B5B6B002B06D0019B5B6B019A23
:10BED40092F83120104698470023184605B05DF8C3
:10BEE40004FB00BF00B585B001900091009B039353
:10BEF400019B1B88262B10D0262B13DC102B02D081
:10BF0400112B05D00EE001990398FFF7F9FB0AE025
:10BF140001990398FFF703FC05E001990398FFF7E3
:10BF240028FC00E000BF00BF05B05DF804FB82B050
:10BF34000190019B1B781AB2019B01331B781BB241
:10BF44001B021BB213431BB29BB2184602B07047CC
:10BF540000B585B001900198FFF7E9FF0346ADF8FD
:10BF64000E30BDF80E3003F00103002B14BF012383
:10BF74000023DBB2184605B05DF804FB00B583B0BE
:10BF840002900091019244F2010071466A4608F061
:10BF94003BF803B000BD00BF82B003468DF8073004
:10BFA4009DF807309AB2064B1B889A4204D29DF83A
:10BFB40007300133DBB200E00023184602B07047BB
:10BFC4006CB3012000B583B00B4B1B788DF80730A0
:10BFD4000A4B1B78DBB21846FFF7DEFF03461A460E
:10BFE4009DF8073093420CBF01230023DBB21846AF
:10BFF40003B05DF804FB00BF68B3012069B30120FE
:10C0040082B0164B1B78DBB2ADF80630144B1B78AC
:10C01400DBB2ADF80430134B1A88BDF80410BDF838
:10C024000630994206D3BDF80410BDF80630CB1A89
:10C034009BB20BE00B4B1988BDF80630CB1A99B2B2
:10C04400BDF804300B449BB201339BB2D31AADF854
:10C054000230BDF80230184602B0704768B30120C0
:10C0640069B301206CB3012082B0194B1B78DBB299
:10C07400ADF80630174B1B78DBB2ADF80430BDF8D1
:10C084000420BDF806309A4206D3BDF80420BDF85A
:10C094000630D31A9BB20BE00F4B1A88BDF806305A
:10C0A400D31A9AB2BDF8043013449BB201339BB245
:10C0B400ADF80230094B1B88BDF802209A4203D91F
:10C0C400064ABDF80230138000BF02B0704700BFBB
:10C0D40068B3012069B301206CB301206EB3012061
:10C0E40000B587B003900B460192ADF80A30384B87
:10C0F4001B88BDF80A209A4262D84FF6FF73ADF848
:10C10400123000238DF811300DF11103184600F0A0
:10C1140037FDFFF757FF0346002B10D12D4B1B783B
:10C12400DBB2ADF812302B4B1B78DBB21846FFF7AD
:10C1340033FF03461A46274B1A70FFF795FF9DF805
:10C144001130184600F032FDBDF812304FF6FF7280
:10C15400934232D0204B1A68BDF81230DB001344EE
:10C16400019A1A60039B002B1CD0BDF80A30002BE7
:10C1740018D01A4B1B68BDF812201549098801FB19
:10C1840002F21344BDF80A200399184608F080FF10
:10C19400114B1A68BDF81230DB001344BDF80A20B5
:10C1A4009A8007E00C4B1A68BDF81230DB00134488
:10C1B40000229A800023059304E00423059301E000
:10C1C40009230593059B184607B05DF804FB00BFDF
:10C1D4006AB3012069B3012060B3012064B3012074
:10C1E40000B583B000238DF807300DF1070318461E
:10C1F40000F0C6FC094B1B68B3F1FF3F04D0074BAA
:10C204001B680133054A13609DF80730184600F097
:10C21400CDFC00BF03B05DF804FB00BF70B3012088
:10C2240000B583B000238DF807300DF107031846DD
:10C2340000F0A6FC084B1B68002B04D0064B1B68BF
:10C24400013B054A13609DF80730184600F0AEFC28
:10C2540000BF03B05DF804FB70B301202DE9F04387
:10C2640083B0144801F07FF8034600221C461546AB
:10C27400114BD3E9002314EB020845EB0309CDE984
:10C2840000890E4BD3E90023DDE90001904271EBF4
:10C29400030307D2DDE9002312F1807643F100079E
:10C2A400CDE90067DDE900231046194603B0BDE877
:10C2B400F08300BF1499012080B3012088B30120CA
:10C2C40088B001900091019B0793009B0693079B04
:10C2D400D3E90223CDE90423069BD3E90223CDE964
:10C2E4000223DDE90423DDE90201904271EB03033B
:10C2F4002CBF01230023DBB2184608B070470000AE
:10C30400F0B585B00190019B5B69002B03D14349D3
:10C31400A52007F09BFE00238DF80F30404B1B78BF
:10C32400002B75D0019B002B72D0FFF797FF019B68
:10C33400D3E90223904271EB030358D300238DF811
:10C344000D300DF10D03184600F01AFC019B1B691A
:10C35400002B06D101994FF0FF324FF0FF33C1E9B2
:10C3640002239DF80D30184600F020FC019B5B6908
:10C37400019A92691046984700238DF80C3003AB5C
:10C38400184600F0FDFB019B1B69002B1AD0019B92
:10C39400D3E90223B3F1FF3F08BFB2F1FF3F11D04D
:10C3A400019BD3E902230199096900200C46054643
:10C3B400161943EB0507019BC3E9026701238DF8B6
:10C3C4000E3002E000238DF80E309DF80C30184634
:10C3D40000F0ECFB9DF80E30002B19D0019B1946A0
:10C3E400104801F0F7FD01238DF80F3010E0019B98
:10C3F400D3E90223B3F1FF3F08BFB2F1FF3F07D0F7
:10C40400019B1946074801F0E5FD01238DF80F3023
:10C414009DF80F30184605B0F0BD00BF7C730A00CC
:10C4240078B3012070730A0030B58BB0019000918D
:10C434000D230993009B00221A70019BD3E9022368
:10C44400CDE90623FFF70AFFDDE90623141A63EB9F
:10C454000105CDE90445DDE90423012A73F1000354
:10C4640018DB049BB3F5350F05D300F00BFB024634
:10C47400144B134400E0069B03934FF49603039A72
:10C484000021114800F062FE0990099B002B05D1A0
:10C49400012314E000210C4800F030FF099B0D2B10
:10C4A40007D10198FFF72CFF03461A46009B1A7028
:10C4B40004E006494FF4867007F0C8FD00231846CF
:10C4C4000BB030BDFFFFB400149901207C730A0047
:10C4D40000B583B0044801F0B7FD0190019B1846F4
:10C4E40003B05DF804FB00BF70730A0000B583B0AD
:10C4F400044801F0CBFD0190019B184603B05DF8A0
:10C5040004FB00BF70730A0000B583B0FFF7E0FFBF
:10C514000190019B002B06D001994FF0FF324FF0A0
:10C52400FF33C1E90223019B002BEFD100BF00BF01
:10C5340003B05DF804FB0000054BD3E9002312F1BE
:10C54400807043F10001024BC3E9000100BF704752
:10C5540080B3012010B582B00190124B1B68002BF0
:10C564001DD0019800F0FFFE04460021019800F060
:10C57400EBFE03461946204600F078FA0346B3F56D
:10C58400960F04D3084940F2411007F05FFD054BB4
:10C594001B681846FFF7B4FE024B00221A6000BF66
:10C5A40002B010BD74B301207C730A0000B583B0DF
:10C5B4000190FFF753FE02460B460349C1E90023ED
:10C5C40000BF03B05DF804FB88B3012000B587B059
:10C5D4000190FFF78BFF049000238DF81730049B24
:10C5E400002B58D0049BD3E90223B3F1FF3F08BFCB
:10C5F400B2F1FF3F02D1FFF76BFF54E02E4B1B68F3
:10C60400002B03D101238DF817301DE0049BD3E9DF
:10C614000201294B1B68D3E90223904271EB030307
:10C6240012D201238DF81730234B1B68D3E9022360
:10C63400B3F1FF3F08BFB2F1FF3F05D01E4B1B68AB
:10C6440019461E4801F0C6FC9DF81730002B2BD06C
:10C65400FFF73EFF04900DF10F0319460498FFF70E
:10C66400E3FE0346002B12D0134B1B68002B02D1B0
:10C67400019800F077FC104A049B13609DF80F307A
:10C6840083F00103DBB2002BA3D000BF0FE00A4B01
:10C6940000221A609DE7084B1B68002B06D1019805
:10C6A40000F076FC02E094E700BF00E000BF00BFAA
:10C6B40007B05DF804FB00BF74B3012070730A0077
:10C6C40000B587B001902B4A03AB1946104600F021
:10C6D40080FF059045E0059B1B78022B2BD0022B95
:10C6E4002FDC002B02D0012B11D02AE0059B5B68C4
:10C6F400D3E90223B3F1FF3F08BFB2F1FF3F22D0D9
:10C70400059B5B6819461C4801F064FC1BE0059B13
:10C714005A681A4B1B689A4203D1184B00221A60BC
:10C7240012E0059B5B681946134801F0C3FC0346FD
:10C734008DF8133008E0FFF7E7FE114B01221A7061
:10C7440002E000BF00E000BF0A4A03AB19461046EE
:10C7540000F058FF074A03AB1946104600F039FFB2
:10C764000590059B002BB6D100BF00BF07B05DF854
:10C7740004FB00BFE8B3012070730A0074B3012006
:10C7840078B3012000B583B00190019800F0A9FDB1
:10C794000346002B01D0FFF7CFFE0021019800F0E3
:10C7A400BEFD0346002B02D00198FFF7D3FE012102
:10C7B400019800F0B4FD0346002B02D00198FFF766
:10C7C400F5FE0198FFF77CFF0198FFF7FFFE00BF1D
:10C7D40003B05DF804FB000008B5024800F0D0FD8A
:10C7E40000BF08BD1499012000B585B0034600912F
:10C7F4008DF80730114A02AB1946104600F0BCFE12
:10C804000390039B002B13D0039B9DF807201A7001
:10C81400039B009A5A60094A02AB1946104600F07D
:10C82400C4FE0346002B01D0FFF7D6FF002300E02F
:10C834000423184605B05DF804FB00BFE8B30120EB
:10C8440000B583B0164B1B68009316480823582282
:10C85400154900F04AFE0190019B002B01D0019B79
:10C8640019E06B46114A1946114800F01BFB019070
:10C87400019B002B01D0019B0DE001210C4800F02D
:10C884001FFD01230B4A0121094800F097FB0A4BC5
:10C8940001221A70019B184603B05DF804FB00BF27
:10C8A400D4730A00E8B3012090B3012089C70200C1
:10C8B40014990120FFFF7F0078B3012000B587B0F1
:10C8C40003900B4601928DF80B30039B002B04D18F
:10C8D400164940F25A2007F0B9FB019B002B04D102
:10C8E400124940F25B2007F0B1FB019B002B01D100
:10C8F400072317E0039B1B68059305994FF0FF324C
:10C904004FF0FF33C1E90223059B019A5A619DF858
:10C914000B30012B0CBF01230023DBB21A46059B0D
:10C924001A610023184607B05DF804FB7C730A0003
:10C93400F0B589B0039002910192039B002B04D1BE
:10C94400264940F26B2007F081FB039B06930023EA
:10C954008DF817300DF11703184600F011F9069BF6
:10C96400D3E90223B3F1FF3F08BFB2F1FF3F11D176
:10C97400FFF774FC02460B46029900200C4605465C
:10C98400161943EB0507069BC3E9026701238DF8DB
:10C994001F3002E000238DF81F309DF81730184631
:10C9A40000F004F99DF81F3083F00103DBB2002B83
:10C9B40001D000230EE0069B019A9A61069B1B6935
:10C9C400002B02D0069B029A1A6106990020FFF7F9
:10C9D4000BFF0346184609B0F0BD00BF7C730A0084
:10C9E40000B587B00190019B002B04D11E4940F291
:10C9F400932007F02BFB019B049300238DF80F3049
:10CA04000DF10F03184600F0BBF8049BD3E9022391
:10CA1400B3F1FF3F08BFB2F1FF3F03D100238DF80C
:10CA2400173009E004994FF0FF324FF0FF33C1E9AA
:10CA3400022301238DF817309DF80F30184600F0BB
:10CA4400B5F89DF8173083F00103DBB2002B01D059
:10CA5400002304E004990120FFF7C6FE03461846AC
:10CA640007B05DF804FB00BF7C730A0082B001903C
:10CA74000091019A009BD31A23F07F43184602B019
:10CA84007047000008B5034800F06DFC03461846E3
:10CA940008BD00BF1499012082B0EFF31083009306
:10CAA400009B019372B600BF019B184602B0704709
:10CAB40062B600BF00BF704700B585B00190FFF7B4
:10CAC400EBFF0390164B9B68002B1BD1144B0122E8
